:03000000020BBE32
:0C0BBE00787FE4F6D8FD758113020B72FD
:100B72007F02120ACF8F0CE50CFD7C007B027A000B
:090B82007F647E0012080080EE81
:100B5200D3EF9400EE6480948040147D6E7C00EDAF
:0F0B62001D70011CED4C70F7EF1F70E41E80E159
:010B71002261
:040BD6007F0CDFFEB3
:010BDA0022F8
:080800008A088B098D828C83AC
:10080800E4F50AF50BEF7F0025E0FE7C007D2D1254
:100818000A488E0D8F0EE5824583600302090EE5B6
:100828000E150EAE0D7002150D4E700302090A7FEB
:10083800057E00120B52E50A60030208EAE50BB4D4
:10084800080040030208EA900856F82828730208AE
:100858006E02087C02088A02089C0208AA0208BCE8
:100868000208CE0208DAD2A0C2A1C2A2C2A3D290C4
:10087800C291801AD2A0D2A1C2A2C2A3D290D29110
:10088800800CC2A0D2A1C2A2C2A3C290D291C2922D
:10089800C293804EC2A0D2A1D2A2C2A3C290D291CA
:1008A800800CC2A0C2A1D2A2C2A3C290C291D2920D
:1008B800C293802EC2A0C2A1D2A2D2A3C290C291DA
:1008C800D292D293801CC2A0C2A1C2A2D2A3C290CB
:1008D800800AD2A0C2A1C2A2D2A3D290C291C292CF
:1008E800D293E50B6407450A7006F50AF50B8008F4
:1008F800050BE50B7002050AAF09AE08120B520290
:100908000827750C0122E50E150EAE0D7002150DA7
:100918004E70030209EFE50A60030209C8E50BB44B
:10092800080040030209C8900936F828287302090C
:100938004E02095A02096C02097E02098C02099EBC
:100948000209AA0209B8D2A0C2A1C2A2D2A3D29017
:10095800800AC2A0C2A1C2A2D2A3C290C291C2926E
:10096800D293805CC2A0C2A1D2A2D2A3C290C291EB
:10097800D292D293804AC2A0C2A1D2A2C2A3C290EC
:10098800C291800CC2A0D2A1D2A2C2A3C290D2911D
:10099800D292C293802AC2A0D2A1C2A2C2A3C290FC
:1009A800800AD2A0D2A1C2A2C2A3D290D291800CB6
:1009B800D2A0C2A1C2A2C2A3D290C291C292C29333
:1009C800E50B6407450A7006F50AF50B8008050B68
:1009D800E50B7002050AAF09AE08120B527F057EBF
:0A09E80000120B5202090EE4F50C98
:0109F20022E2
:100B2E008F0F8C108D11120BA07FA0120A9D120B2D
:100B3E008BAF0F120A9D120B8BAF11120A9D120B67
:040B4E008B020BCA41
:020ACF008F088E
:100AD100120BA07FA0120A9D120B8BAF08120A9D68
:100AE100120B8B120BA07FA1120A9D120B8B120A03
:0D0AF100FF8F097F01120BAF120BCAAF0976
:010AFE0022D5
:0F0BA000D2B0D2B1120BD6C2B0120BD6C2B12254
:0C0BCA00C2B0D2B1120BD6D2B0020BD6D2
:020A9D008F0ABE
:100A9F00E4F50B74807E00A80B088006CEA2E71346
:100AAF00CE13D8F8FFEF550A24FF92B0D2B1120B34
:0F0ABF00D6C2B1120BD6050BE50BC3940840D479
:010ACE002205
:100AFF00E4F50BD2B0F50AD2B1120BD630B00FAF6E
:100B0F000A7480A807088002C313D8FC420BC2B135
:0E0B1F00120BD6050AE50AC3940840DBAF0BA3
:010B2D0022A5
:0F0BAF00EF24FF92B0D2B1120BD6C2B1020BD617
:100B8B00D2B0120BD6D2B1A2B0E433F50AC2B11275
:040B9B000BD6AF0ABC
:010B9F002233
:1009F300E4F512F51320B70F7F14FE120B5220B744
:100A03000675120075130120B6107F147E00120BB9
:100A13005220B60675120075130220B4107F147E9F
:100A230000120B5220B60675120075130320B31083
:100A33007F147E00120B5220B60675120075130444
:040A4300AE12AF132D
:010A4700228C
:100A4800BC000BBE0029EF8DF084FFADF022E4CC92
:100A5800F875F008EF2FFFEE33FEEC33FCEE9DEC5B
:100A6800984005FCEE9DFE0FD5F0E9E4CEFD22EDA1
:100A7800F8F5F0EE8420D21CFEADF075F008EF2FEB
:100A8800FFED33FD4007985006D5F0F222C398FDDC
:050A98000FD5F0EA2279
:00000001FF
